{
  "contractName": "Vote",
  "abi": [
    {
      "inputs": [
        {
          "name": "items",
          "type": "bytes32[]"
        }
      ],
      "payable": false,
      "stateMutability": "nonpayable",
      "type": "constructor"
    },
    {
      "constant": false,
      "inputs": [
        {
          "name": "item",
          "type": "bytes32"
        }
      ],
      "name": "vote",
      "outputs": [],
      "payable": false,
      "stateMutability": "nonpayable",
      "type": "function"
    },
    {
      "constant": true,
      "inputs": [
        {
          "name": "item",
          "type": "bytes32"
        }
      ],
      "name": "item",
      "outputs": [
        {
          "name": "",
          "type": "uint8"
        }
      ],
      "payable": false,
      "stateMutability": "view",
      "type": "function"
    }
  ],
  "bytecode": "0x608060405234801561001057600080fd5b5060405161024b38038061024b833981018060405281019080805182019291905050508060009080519060200190610049929190610050565b50506100c8565b828054828255906000526020600020908101928215610092579160200282015b82811115610091578251829060001916905591602001919060010190610070565b5b50905061009f91906100a3565b5090565b6100c591905b808211156100c15760008160009055506001016100a9565b5090565b90565b610174806100d76000396000f30060806040526004361061004c576000357c0100000000000000000000000000000000000000000000000000000000900463ffffffff1680631d376d9b14610051578063a69beaba1461009c575b600080fd5b34801561005d57600080fd5b5061008060048036038101908080356000191690602001909291905050506100cd565b604051808260ff1660ff16815260200191505060405180910390f35b3480156100a857600080fd5b506100cb60048036038101908080356000191690602001909291905050506100ff565b005b600060016000836000191660001916815260200190815260200160002060009054906101000a900460ff169050919050565b6001806000836000191660001916815260200190815260200160002060008282829054906101000a900460ff160192506101000a81548160ff021916908360ff160217905550505600a165627a7a72305820e75cb1a9c6974b9365195b66f05180f4115804c187db1a7160a3dafb06ea8c660029",
  "source": "pragma solidity ^0.4.22;\n\n\ncontract Vote\n{\n  bytes32[] itemList;\n  mapping (bytes32 => uint8) voteContent;\n\n  // 初始化\n  constructor(bytes32[] items) public\n  {\n    itemList = items;\n  }\n\n  // 投票\n  function vote(bytes32 item) public\n  {\n    voteContent[item] += 1;\n  }\n\n  // 取得項目投票結果\n  function item(bytes32 item) view public returns(uint8)\n  {\n    return voteContent[item];\n  }\n}\n",
  "sourcePath": "/Users/sean0720/Dropbox/Code/Ethereum-dApp/Laravel/vote/truffle/contracts/Vote.sol",
  "compiler": {
    "name": "solc",
    "version": "0.4.24+commit.e67f0147.Emscripten.clang"
  },
  "schemaVersion": "2.0.1",
  "updatedAt": "2018-08-06T17:50:45.495Z"
}